:100000000C9431080C946A080C946A080C946A08E1
:100010000C946A080C946A080C946A080C946A0898
:100020000C946A080C946A080C94072B0C94572CB7
:100030000C94BC2A0C946A080C946A080C946A0804
:100040000C946A080C946A080C946A080C946A0868
:100050000C944B2A0C94E32A0C946A080C946A08BA
:100060000C946A080C946A080C946A080C946A0848
:100070000C946A080C946A080C946A080C946A0838
:100080000C946A080C946A080C946A080C946A0828
:100090000C946A080C946A080C946A080C946A0818
:1000A0000C946A080C946A080C946A080631FF09DB
:1000B00074A1010975150026FF00952075088102BD
:1000C000C005010980A101850319012AB7001501A6
:1000D00026B700950175108100C0050C0901A1012A
:1000E000850419012AA002150126A00295017510A8
:1000F0008100C005010906A1018506050719E0294F
:10010000E7150025019508750181020507190029E9
:10011000EF1500250195F0750181020508190129E7
:1001200005950575019102950175039101C00501C1
:100130000906A101050719E029E715002501950821
:10014000750181029501750881010507190029FFD4
:10015000150026FF0095067508810005081901297C
:10016000051500250195057501910295017503910D
:1001700001C009025400030100A0FA0904000001B3
:10018000030101000921110100012244000705813A
:100190000308000109040100010300000009211106
:1001A000010001226D0007058203200001090402FD
:1001B00000010300000009211101000122150007C0
:1001C0000583032000011201000200000008756F82
:1001D0007368010001020001120331007500700014
:1001E0003600300068007300650000001A0331001B
:1001F000750070006B006500790062006F0061009F
:100200007200640073000000040309045B435D0096
:100210005B445D005B535D005B575D005B525D00BE
:1002200064656C5F6B65795F6269743A2063616EC7
:1002300027742064656C3A20253032580A006164C6
:10024000645F6B65795F6269743A2063616E2774DD
:10025000206164643A20253032580A004C25640A33
:10026000006261636B6C696768745F636F6E666977
:10027000672E7261773A20253032580A2E656E61FA
:10028000626C653A2025750A2E6C6576656C3A209D
:1002900025750A006B65796D61705F636F6E6669C5
:1002A000672E7261773A20253032580A2E737761B3
:1002B000705F636F6E74726F6C5F636170736C6F8D
:1002C000636B3A2025750A2E636170736C6F636BE4
:1002D0005F746F5F636F6E74726F6C3A2025750A7E
:1002E0002E737761705F6C63746C5F6C6775693ACD
:1002F0002025750A2E737761705F7263746C5F726C
:100300006775693A2025750A2E737761705F6C6195
:100310006C745F6C6775693A2025750A2E73776176
:10032000705F72616C745F726775693A2025750A37
:100330002E6E6F5F6775693A2025750A2E73776197
:10034000705F67726176655F6573633A2025750A31
:100350002E737761705F6261636B736C6173685F4A
:100360006261636B73706163653A2025750A2E6E56
:100370006B726F3A2025750A2E737761705F657313
:10038000636170655F636170736C6F636B3A2025A6
:10039000750A0064656275675F636F6E6669672ED4
:1003A0007261773A20253032580A2E656E61626C90
:1003B000653A2025750A2E6D61747269783A202598
:1003C000750A2E6B6579626F6172643A2025750A31
:1003D0002E6D6F7573653A2025750A006565636F2C
:1003E0006E6669673A0A64656661756C745F6C6114
:1003F0007965723A20256C750A000A092D204D6135
:10040000676963202D0A443A094465627567204D87
:1004100065737361676520546F67676C650A583A46
:10042000094D6174726978204465627567204D6F6B
:10043000646520546F67676C65202D2053686F7763
:10044000206B65797072657373657320696E206DBA
:10045000617472697820677269640A4B3A094B6566
:1004600079626F61726420446562756720546F67BA
:10047000676C65202D2053686F77206B65797072EB
:10048000657373207265706F72740A4D3A09446522
:10049000627567204D6F75736520546F67676C6573
:1004A0000A563A0956657273696F6E0A533A0953D0
:1004B00074617475730A433A0941637469766174AF
:1004C0006520436F6E736F6C65204D6F64650A46DF
:1004D000312D4631303A0953776974636820746F5F
:1004E000204C6179657220302D392028463130202A
:1004F0003D204C30290A302D393A0953776974630D
:100500006820746F204C6179657220302D390A475C
:10051000524156453A0953776974636820746F20D5
:100520004C6179657220302028616C7465726E614F
:100530007465290A423A094A756D7020746F204229
:100540006F6F746C6F616465720A4553433A094A70
:10055000756D7020746F20426F6F746C6F6164658D
:10056000722028616C7465726E617465290A453A5F
:10057000095072696E7420454550524F4D205365A5
:100580007474696E67730A4241434B53504143454B
:100590003A09436C65617220454550524F4D0A4EF1
:1005A0003A094E4B524F20546F67676C650A00251D
:1005B00073000A092D20537461747573202D0A6825
:1005C0006F73745F6B6579626F6172645F6C656491
:1005D0007328293A20253032580A6B6579626F6199
:1005E00072645F70726F746F636F6C3A2025303283
:1005F000580A6B6579626F6172645F69646C653A11
:1006000020253032580A6B65796D61705F636F6EBB
:100610006669672E6E6B726F3A20253032580A7405
:10062000696D65725F72656164333228293A2025ED
:1006300030386C580A003F004E4B524F3A206F66DC
:10064000660A004E4B524F3A206F6E0A000A6D6FD9
:100650007573653A206F66660A000A6D6F7573657B
:100660003A206F6E0A000A6B6579626F6172643AB4
:10067000206F66660A000A6B6579626F6172643A80
:10068000206F6E0A000A6D61747269783A206F6695
:10069000660A000A6D61747269783A206F6E0A000A
:1006A0000A64656275673A206F66660A000A6465C7
:1006B0006275673A206F6E0A000A0A4A756D7069A2
:1006C0006E6720746F20626F6F746C6F6164657207
:1006D0002E2E2E2000433E2000436C656172696E11
:1006E0006720454550524F4D0A00000000000000B1
:1006F000000000000001010203040506080A0C0FB7
:100700001114181C2024292E33393F464C535B62A8
:100710006A7179818A929AA2AAB2B9C1C8CFD5DC8E
:10072000E1E7EBF0F4F7FAFCFDFEFFFEFDFCFAF763
:10073000F4F0EBE7E1DCD5CFC8C1B9B2AAA29A9236
:100740008A8179716A625B534C463F39332E292482
:10075000201C1814110F0C0A0806050403020101DD
:10076000000000000000000000006261636B6C6923
:100770006768745F696E6974206261636B6C696736
:1007800068745F636F6E6669672E76616C6964205A
:100790003D20302E2057726974652064656661754E
:1007A0006C742076616C75657320746F20454550BC
:1007B000524F4D2E0A002223252628292A2C2D2F80
:1007C0003032333536383A3B3D3E40424345474967
:1007D0004A4C4E5051535557595A5C5E606264669C
:1007E00068696B6D6F71737577797B7D7F818385A8
:1007F00087898A8C8E90929496989A9C9E9FA1A3AA
:10080000A5A7A8AAACAEAFB1B3B4B6B8B9BBBCBECD
:10081000BFC1C2C3C5C6C7C9CACBCCCDCED0D1D249
:10082000D2D3D4D5D6D7D7D8D9D9DADADBDBDBDC4B
:10083000DCDCDCDCDDDDDDDDDCDCDCDCDCDBDBDBF7
:10084000DADAD9D9D8D7D7D6D5D4D3D2D2D1D0CE57
:10085000CDCCCBCAC9C7C6C5C3C2C1BFBEBCBBB95C
:10086000B8B6B4B3B1AFAEACAAA8A7A5A3A19F9EDA
:100870009C9A98969492908E8C8A89878583817FA2
:100880007D7B79777573716F6D6B69686664626083
:100890005E5C5A5957555351504E4C4A494745434F
:1008A00042403E3D3B3A3836353332302F2D2C2AEC
:1008B0002928262523227267626C69676874207470
:1008C000696D65722064697361626C652E0A0072DD
:1008D00067626C696768742074696D657220656E03
:1008E00061626C65642E0A007267626C6967687485
:1008F0002073657420687376205B4E4F45455052D7
:100900004F4D5D3A2025752C25752C25750A0072F2
:1009100067626C69676874207365742068737620F9
:100920005B454550524F4D5D3A2025752C25752C61
:1009300025750A007267626C696768742072616964
:100940006E626F7720736574206873763A20256431
:100950002C25642C25642C25750A00FFAA7F5540A0
:100960007267626C69676874206D6F6465205B4EA6
:100970004F454550524F4D5D3A2025750A0072672C
:10098000626C69676874206D6F6465205B454550D3
:10099000524F4D5D3A2025750A0000010101010109
:1009A0000101010102020202020202020203030328
:1009B00003030303030404040404040405050505F8
:1009C00005060606060607070707070808080809B8
:1009D0000909090A0A0A0B0B0B0C0C0C0D0D0D0E64
:1009E0000E0E0F0F0F1010111111121213131414F9
:1009F000151516161717181819191A1A1B1B1C1D6E
:100A00001D1E1E1F202021222223242425262627C6
:100A10002829292A2B2C2D2D2E2F303132323334F8
:100A200035363738393A3B3C3D3E3F4041424344FE
:100A300045464748494A4C4D4E4F505153545556E0
:100A400058595A5B5D5E5F616264656668696B6C8C
:100A50006D6F7072737577787A7B7D7E8082838507
:100A600087888A8C8E8F91939596989A9C9EA0A247
:100A7000A3A5A7A9ABADAFB1B3B5B7BABCBEC0C251
:100A8000C4C6C9CBCDCFD1D4D6D8DBDDDFE2E4E715
:100A9000E9EBEEF0F3F5F8FAFDFF7267626C696757
:100AA00068745F636F6E6669672E73706565642036
:100AB0003D2025640A007267626C696768745F6331
:100AC0006F6E6669672E76616C203D2025640A0092
:100AD0007267626C696768745F636F6E6669672EC0
:100AE000736174203D2025640A007267626C696737
:100AF00068745F636F6E6669672E687565203D2058
:100B000025640A007267686C696768745F636F6E5A
:100B10006669672E6D6F6465203D2025640A00724A
:100B200067626C696768745F636F6E6669672E766B
:100B3000656C6F63696B6579203D2025640A0072DE
:100B400067626C696768745F636F6E6669672E655C
:100B50006E61626C65203D2025640A007267626CDC
:100B6000696768745F636F6E6669672045455052B8
:100B70004F4D3A0A007267626C696768745F696E0C
:100B80006974207267626C696768745F636F6E6610
:100B900069672E6D6F6465203D20302E2057726985
:100BA00074652064656661756C742076616C75652A
:100BB0007320746F20454550524F4D2E0A007267C6
:100BC000626C696768745F696E69742073746172BE
:100BD00074210A007267626C6967687420646973C3
:100BE00061626C65205B4E4F454550524F4D5D3AFA
:100BF000207267626C696768745F636F6E666967AD
:100C00002E656E61626C65203D2025750A00726755
:100C1000626C6967687420656E61626C65205B4E0A
:100C20004F454550524F4D5D3A207267626C69677F
:100C300068745F636F6E6669672E656E61626C656E
:100C4000203D2025750A0073757370656E64696EAA
:100C500067206B6579626F6172640D0A000A002576
:100C600030313662003A200025303258000A722FA7
:100C700063203031323334353637383941424344DA
:100C800045460A001E0F0500047F3F1F64321464AE
:100C90003214783C1E1E140A056C65645F7461731F
:100CA0006B3A20253032580A0029001E001F002010
:100CB0000021002200230024002500260027002D0B
:100CC000002E002A002B0014001A0008001500173F
:100CD000001C0018000C00120013002F003000311F
:100CE00000390004001600070009000A000B000D7F
:100CF000000E000F003300340000002800E1001D4A
:100D0000001B000600190005001100100036003716
:100D100000380000000000E500E000E300E2000011
:100D20000000002C00000000000000E600E70021A9
:100D3000520000E40035003A003B003C003D003E1C
:100D4000003F004000410042004300440045004C89
:100D5000000100010052000100010001000100013A
:100D6000000100010046004700480001000100505A
:100D70000051004F00010001000100010001004985
:100D8000004A004B00000001000100A900AA00A8D1
:100D900000010001000100010001004D004E0000B3
:100DA000000000010001000100010000000000013E
:100DB00000000000000000010022520100000001BC
:100DC000000100010001000100010001000100011B
:100DD0000001000100010001000100007C02780414
:100DE000780378057801000100010001000100018D
:100DF00000010001000100010020782178237825FE
:100E000078277829782B782C782D782E7801000196
:100E10000000000100010022782478267828782A32
:100E2000782F7830783178327801000000000001A6
:100E300000010001000100000000000100000000AE
:100E4000000000010001000100000001000A00256F
:100E500030325820006E6B726F5F7265706F727403
:100E60003A2025303258207C20000A0025303258A4
:100E700020006B6579626F6172645F7265706F727A
:100E8000743A2025303258207C20004F6E657368FC
:100E90006F743A206163746976653A2025640A00AC
:100EA0000A092D20436F6E736F6C65202D0A455320
:100EB000432F713A09717569740A003F00433E205F
:100EC000006261636B6C696768742062726561744B
:100ED00068696E672064697361626C650A006261AB
:100EE000636B6C6967687420627265617468696EAF
:100EF0006720656E61626C650A006261636B6C6994
:100F000067687420627265617468696E6720746FC7
:100F100067676C653A2025750A006261636B6C69CE
:100F200067687420737465703A2025750A006261E1
:100F3000636B6C696768742064697361626C650ACD
:100F4000006261636B6C6967687420656E61626CD6
:100F5000650A006261636B6C6967687420746F670F
:100F6000676C653A2025750A006261636B6C69677E
:100F7000687420696E6372656173653A2025750A2D
:100F8000006261636B6C6967687420646563726595
:100F90006173653A2025750A007267626C6967683B
:100FA000742064697361626C65205B454550524FE3
:100FB0004D5D3A207267626C696768745F636F6E3B
:100FC0006669672E656E61626C65203D2025750A35
:100FD000007267626C6967687420656E61626C6537
:100FE000205B454550524F4D5D3A207267626C69F7
:100FF0006768745F636F6E6669672E656E61626CA9
:1010000065203D2025750A007267626C6967687407
:1010100020746F67676C65205B454550524F4D5D8E
:101020003A207267626C696768745F636F6E6669A5
:10103000672E656E61626C65203D2025750A00444F
:10104000454255473A2064697361626C65642E0AB3
:101050000044454255473A20656E61626C65642ED6
:101060000A0011241FBECFEFDAE0DEBFCDBF04B609
:1010700003FE19C080914C0490914D04A0914E0440
:10108000B0914F048730904BA740B04B61F4109261
:101090004C0410924D0410924E0410924F04E0E064
:1010A000F8E3099500C024E0AAEAB2E001C01D926D
:1010B000AC34B207E1F712E0A0E0B1E0E4E8FDE50E
:1010C00002C005900D92AA3AB107D9F70E942226D4
:1010D0000C943C2E0C940000FF93EF93E091AA0235
:1010E000F091AB02309709F00995EF91FF910895C7
:1010F000FC018591803011F0EFDFFBCF0895FF27D1
:10110000E0E230E247FF0CC0419597FF09C0EDE2F5
:101110006095709580959095611D711D811D911D43
:1011200027FF02C0219530E350E2AA27660F771F00
:10113000881F991FAA1FA41710F0A41B63955A9526
:10114000A9F7AA3008F0A95FA05DAF93F3956115E8
:1011500071058105910541F7ED3211F4EF93F39597
:10116000F21718F43F93F395FBCF8F91B5DFFA9503
:10117000E1F70895E991F9918591803021F0853268
:1011800019F0AADFF9CF089520E0E894559155327F
:10119000C1F3503311F4689455915A3348F45053C5
:1011A00090F3220F022E220F220F200D250FF4CFD5
:1011B0000EF4219589919991533619F3533729F1FA
:1011C000533559F1BC0188279927E8945C3621F4FE
:1011D0008991999168945591543639F446EF7EF08F
:1011E00077FF0DC08FEF9FEF0AC055374AE039F007
:1011F000583540E121F0523642E009F00895FF935E
:10120000EF937DDFEF91FF91B7CFFF93EF93FC0159
:1012100081918030B9F360DFFBCFFF93EF9368DFFC
:10122000F1CFDF93CF93CDB7DEB72596A3DFCF9174
:10123000DF9108958295982F990F990F9C7C869540
:1012400086958373982B892F880F8A7A9695957542
:10125000892B089580930304909304040895809348
:10126000050490930604089521E030E002C0220FA7
:10127000331F8A95E2F78091050490910604822B32
:10128000932BEDCF21E030E002C0220F331F8A956F
:10129000E2F7209530958091050490910604822311
:1012A0009323DDCF953090F58E3080F5E82FF0E078
:1012B0008EE0989FE00DF11D112451E0E1FD54E016
:1012C000E0FD550FE2FD529583E0F695E7958A958E
:1012D000E1F7EE0FFF1FEE0FFF1FE453FC4F20E07E
:1012E00030E070E04191DF01CB01022E02C0969503
:1012F00087950A94E2F78695880B842785238427AF
:101300008E932F5F3F4F2430310561F70895292FC9
:10131000953070F58E3060F590E03EE0239F800DB3
:10132000911D1124682F677023E0969587952A9563
:10133000E1F7FC01EE0FFF1FEE0FFF1FE453FC4F20
:1013400040E050E080E0219130E0062E02C036956A
:1013500027950A94E2F72170042E01C0220F0A9407
:10136000EAF7822B4F5F5F4F4430510561F70895D4
:1013700080E00895E0910C0490910B04E91302C001
:1013800080E008959F0157E0E59FF0011124E35F9D
:10139000FB4F5181561306C05081581303C055812D
:1013A000541305C02F5F3F4FF901E770E7CF81E08D
:1013B000089580910C0420910B04281301C0089516
:1013C00001968770FACF90910704809589238093C6
:1013D0000704282F277061F4891751F090910904B0
:1013E00092FF06C08695869586954CDF109207047D
:1013F00008958091000490910A04892B9091010432
:101400009115C9F0892B90911F01913021F4909191
:10141000080497FD11C096E02EEA32E040E09150BA
:10142000F90150812F5F3F4F51114F5F9111F7CF5D
:1014300041111092010408959EE126EB32E0EECFB7
:101440008095982F8091000489238093000408954B
:10145000972F7530C8F46E30B8F48330C0F470E064
:101460002EE0929F600D711D112496E4899F600DFE
:10147000711D1124FB01EE0FFF1FE755F34F8591FE
:101480009591282F822F089520E090E0FBCF21E056
:10149000FCCF803E9105D1F1C8F48133910509F468
:1014A00081C048F48932910509F471C08A329105EE
:1014B00009F47FC0089589339105E1F082389105E0
:1014C000C9F08533910509F45DC00895843E910506
:1014D000D1F148F4823E910531F1833E910541F10D
:1014E00081EE90E00895863E9105C1F1873E910519
:1014F000F1F1089520910804237009F064C020914F
:10150000090423FF14C089E290E0089520910804A3
:1015100020FD45C03091090430FF09C024FD24C0DE
:1015200083EE90E008952091080422FDF7CF0895FE
:101530002091080422FD44C03091090430FD43C0CD
:1015400024FFF5CF11C02091090421FFF0CF809135
:10155000080484FD09C087EE90E0089520910804F6
:1015600023FFE5CF24FFF7CF80E090E0089520919E
:10157000080423FD2BC03091090431FFE1CF84EE34
:1015800090E008952091080425FFD1CFBCCF209191
:10159000080425FD1EC02091090423FFC8CF89E35C
:1015A00090E008952091080426FFC1CF8AE290E0E0
:1015B00008952091080426FFBACF81E390E00895B2
:1015C00082EE90E0089580EE90E0089586EE90E03F
:1015D000089585E390E008959091080492FF10C06B
:1015E00041E0282F2471243009F040E031E0282F19
:1015F0002871283009F030E0431711F02CE08227E1
:1016000093FF10C041E0282F2471243109F040E0FD
:1016100031E0282F2871283109F030E0431711F00C
:101620002CE082273091090430FF10C051E0282FB0
:101630002171213009F050E041E0282F2871283035
:1016400009F040E0541711F029E0822731FF10C063
:1016500041E0282F2171213109F040E031E0282FAD
:101660002871283109F030E0431711F029E0822772
:1016700094FF02C083FD877E08950F931F93CF933D
:10168000DF9307DFEC01D23508F04DC0D03508F00C
:10169000C3C0C03ED10530F5CD3CD10508F09AC09D
:1016A000C83AD10578F4C53AD10508F090C0C130E8
:1016B000D10599F1CE010497813A910570F1C0E00E
:1016C000D0E02BC0CE01885A91094B97C0F7C85A79
:1016D000D0E0CC0FDD1FC35CDD4F0990D881C02D59
:1016E000D4641BC0D03490F4D03208F0A8C0C83EF7
:1016F000D10598F0CE0191509F3108F78D2F6CDF06
:10170000082F8C2F90E0C5DE902B54C08C2F90E0DA
:10171000C0DEDF70C82FD92BD06ACE01DF91CF9108
:101720001F910F910895C03882E5D807B8F5C036EB
:1017300082E5D80708F056C0C03482E5D807C8F45F
:10174000C03282E5D80708F047C08C2F8695869571
:1017500020E2829FC0011124C37021E030E002C06A
:10176000220F331FCA95E2F7E901C82BD92BDD6898
:10177000D4CF8C2F86958695877020E2829FC001FA
:101780001124C37021E030E002C0220F331FCA953C
:10179000E2F7E901C82BD92BDC68BFCFC03C82E55A
:1017A000D80750F48C2F8F71C03AD24580F5982F0E
:1017B00084EF906AEC01B1CFCE01805C92458097B6
:1017C00008F07DCFDC2FDF71C0EFD06AA6CFA497E1
:1017D000D064A3CFD065A1CF8C2F8F71D82FC1EF4C
:1017E000D06A9BCF8C2F86958695877020E2829F4A
:1017F000C0011124C37021E030E002C0220F331F6A
:10180000CA95E2F7E901C82BD92BDA6886CFE4DE66
:10181000C0E0D82FD06281CF8C2F8F71DDDE93E0B6
:10182000CC0FDD1F9A95E1F7DF70282F84FF04C0ED
:1018300090E1899F90011124C22FD0696ECF8D2F26
:101840008F71CADE082F8C2F90E023DE902BEC01E5
:10185000E1CFCF92DF92FF920F931F93CF93DF934D
:101860006C0100910504109106048091030490918D
:101870000404082B192BCFE0D0E081E090E00C2E7F
:1018800002C0880F991F0A94E2F780239123892BC5
:1018900061F4219790F7F12C8F2DDF91CF911F915B
:1018A0000F91FF90DF90CF900895FC2EB6018C2F02
:1018B000CFDDE3DE019769F3EFCF1F93CF93DF9383
:1018C000FC012581C081D181CE01211571F0611506
:1018D00061F0BFDF182F682FCE01E4DCBE01812F3D
:1018E000B7DDDF91CF911F91089511DD182FF6CF4D
:1018F000CF93DF93EC01ADDFBE01AADDBEDEDF9149
:10190000CF910895FC012481211599F08081918166
:10191000EFDF282F92959F70963099F060F4925FD8
:101920009F70923030F4203FB1F038F481E0283ECF
:1019300038F080E008959A5FF3CF81E0243FC9F743
:10194000089591E0213F09F090E081E0283E08F001
:1019500080E0892B089581E00895F894E82FE295BE
:10196000EF70F0E041A18F7021E001C0220F8A9555
:10197000EAF7922F9095942391A392A1822F892B1D
:1019800082A3789408950895CF92DF92EF92FF9208
:101990001F93CF93DF93462F172FE82FF0E0E656E3
:1019A000F64F71110CC0E4918E2F7E2F6E2FDF91B8
:1019B000CF911F91FF90EF90DF90CF900895F49119
:1019C000EF2F86E0689FE00111242FEF30E0CE0179
:1019D000B9010E94C82CDB01CA01880F991F65E577
:1019E0006A9FA0016B9F500D1124841B482F440F48
:1019F000480FC901811B9109F89F7001F99FF00CF4
:101A000011248F2D149FB0011124672F70E06901FC
:101A1000C61AD70AB601F69F6001F79FD00C1124B1
:101A2000A330B10549F1B901641B7109AB01149FE1
:101A3000B001159F700D1124672F70E0261B370B26
:101A4000F29FA001F39F500D1124752FCC3FD3407E
:101A500050F4A130B105A1F0129709F0A7CFEF2DF6
:101A6000852F7F2FA3CFA430B10569F0169709F415
:101A70009DCF7F2D8D2D9ACF7D2DEF2D8F2F96CF42
:101A80007F2FED2D93CFE52F7F2DF8CFCF93762F9E
:101A9000C22F682F842F78DF472F282F8C2F90E0BC
:101AA00091D2CF910895CF93DF938091F70380FD7A
:101AB0000BC0C0E0D0E020E040E060E0CE0182D288
:101AC0002196CE30D105B9F7ACD4DF91CF910895EE
:101AD000FF920F931F93CF93DF93182F062FF42EAF
:101AE0008091F70380FF0CC0C0E0D0E02F2D402F85
:101AF000612FCE0167D22196CE30D105B9F7D3DF61
:101B0000CDB7DEB7E5E00C94FD2D762F9091F7036D
:101B100090FF08C0682F842F37DF962F672F482F3C
:101B2000892FD6CF0895CF93DF93EC01E7EFF3E051
:101B3000438162818C81E9DF8C818F5F8C83DF91AF
:101B4000CF910895CF93DF93EC01EC81F0E0EA545C
:101B5000F84F4491E7EFF3E062818181D6DF8C8119
:101B60008F5F8C83DF91CF910895FF920F931F9326
:101B7000CF93DF93EC01F12C00E010E08C81980111
:101B80004091FA036091F9038F0D80DF0F5F1F4FC3
:101B900082E1F80E0E30110589F785DF8C819A817C
:101BA00090FF07C08F5F8C83CDB7DEB7E5E00C9464
:101BB000FD2D8150F8CFEF92FF920F931F93CF939B
:101BC000DF93FC018281EE24E39480FF02C0EE24C7
:101BD000EA94C0E0D0E020E040E060E0CE01F2D145
:101BE00004E010E0F12C809165038F0D8F308CF1B3
:101BF0006EE00E94BB2C892F082E001C00088C1759
:101C00000D0679F44091FA030403A00111245595BF
:101C10004795559547959E016091F9038091F8038A
:101C200035DFFE0C01501040F1F62196CE30D10583
:101C300091F639DF809165039E2D913071F4811505
:101C400091F0815080936503CDB7DEB7E6E00C9448
:101C5000FC2D87FFD1CF825FCFCF90E00196BE01F0
:101C60000E94DC2CEFCF8DE0EDCFCF93DF93C0E06F
:101C7000D0E020E040E060E0CE01A4D12196CE305B
:101C8000D105B9F7C0E0D0E080916403082E001CB4
:101C90000008C817D0055CF180910701082E001CD0
:101CA00000088C170D061CF19E014091FA0360910B
:101CB000F9038091F803EADE2196CE30D10521F7B1
:101CC000F2DE8091060190916403980F9093640373
:101CD00020910701280F20930701121614F49D305C
:101CE0001CF0819580930601DF91CF91089520E04B
:101CF00040E060E0CE0166D1DFCFA0E0B0E0E3E8F5
:101D0000FEE00C94DC2DEC01FC812F2F30E0D9019A
:101D10000E940B2E9B01AC010E94C42D7B018C0103
:101D200080E290E08F1B9109FC01A5E59701A801D5
:101D30000E94C42D5B016C019F01DF010E949A2C5F
:101D40009B010E94F52C9B01AC012E0D3F1D401FF5
:101D5000511FB501C6010E941A2E022F30E00A322F
:101D600080F5A901440F551F420F531F5595479504
:101D7000142F1095E12CF12C85E5801BD82E8D2D8C
:101D8000E1FC802F9701412F6091F9037FDE8FEFF7
:101D9000E81AF80A8EE0E816F10489F784DE9C81DF
:101DA00081E0911519F0903219F48FEF80930501BD
:101DB00080910501890F8C83CDB7DEB7EAE00C94E2
:101DC000F82D85E590E0821B930BAC01440F551F65
:101DD000480F591F5AF64F5F5F4FC8CFCF93DF931D
:101DE000EC012091FA039C81892F817090FD822F54
:101DF000692F627091FD622F492F447092FD422F2E
:101E000067DE8C81019687708C83DF91CF91089576
:101E10000F931F93CF93DF93EC0120E030E06091AC
:101E2000F9038091F8039C8189010F5F1F4F2730D0
:101E300031053CF4911541F04091FA0327DE9801F9
:101E4000EECF4091FA03911140E020DE98010E3070
:101E5000110529F728DE8C81019681708C83DF9132
:101E6000CF911F910F9108950F931F93CF93DF93FD
:101E7000EC0180918600909187006CE070E00E94F8
:101E8000C82C6C177D0758F0CE0169E070E00E9405
:101E9000C82CCB01DF91CF911F910F9108958091B4
:101EA00086009091870020918600309187008901FB
:101EB000209186003091870066E070E00E94C82C77
:101EC000E0E0F0E0C60FD71FE11DF11D85E0CC0F6B
:101ED000DD1FEE1FFF1F8A95D1F7C80166E070E095
:101EE0000E94C82C40E050E0260F371F411D511DB5
:101EF000BE01CF010E941A2EE901FA0180918600ED
:101F0000909187008C01B901CA010E94A02C9B010D
:101F1000AC01D8010E94C42D9B01AC01BE01CF01D0
:101F20000E94A02C770FAC0177276627441F551F0E
:101F3000661F80918600909187008417950716068A
:101F4000170620F44091860050918700CA01A2CF65
:101F50008630E0F481111BC090918000977F9093B0
:101F600080002091860030918700A82FB0E00E9469
:101F70000B2E25E030E040E050E00E941A2EC9010F
:101F800073DF90938D0080938C00089585E090918D
:101F900080009860E4CF982F990F990F990F2091A6
:101FA000F4032770922B9093F40321E0983008F407
:101FB00020E09091F40320FB90F99093F403C8CFB4
:101FC000809A0895FC01EE0FFF1FE80FF91FEC50F7
:101FD000FD4F6183408322830895E091C203F09115
:101FE000C303309739F00190F081E02D309711F064
:101FF0000995089580E00895A3E0B0E0E2E0F0E103
:102000000C94E42D2091F0023091F1022817390749
:10201000B1F08093F0029093F102E091C203F0914D
:10202000C303309761F00084F185E02D309739F0DB
:1020300023E029838A839B83CE0101960995239609
:10204000E2E00C94002EA3E0B0E0E9E2F0E10C94B1
:10205000E42D2091EE023091EF0228173907B1F0FC
:102060008093EE029093EF02E091C203F091C303DC
:10207000309761F00084F185E02D309739F024E04D
:1020800029838A839B83CE01019609952396E2E0FA
:102090000C94002E80911E0108952FB7F894809122
:1020A000EA029091EB02A091EC02B091ED022FBFF9
:1020B00008952FB7F8946091EA027091EB02809135
:1020C000EC029091ED022FBF08950895FC0120913C
:1020D000DE023091DF022617370748F061157105DF
:1020E00029F49091E8009E779093E8009B0190E09E
:1020F0002115310541F4911106C08091E80082FF5D
:1021000032C080E0089580916B038115C1F1853064
:10211000C1F18091E80083FD30C08091E80082FD2C
:10212000ECCF8091E80080FFE3CF8091F3004091F5
:10213000F200582F2115310519F04830510558F09B
:1021400091E04830510509F090E04091E8004E7769
:102150004093E800CDCF81918093F1002150310967
:102160004F5F5F4FE7CF80916B03811541F0853062
:1021700041F08091E80083FFC0CF81E0089582E0C4
:10218000089583E00895982F9093E900891771F0DE
:102190007091EC002091ED005091F00021FD09C0FC
:1021A0009F5F973089F78093E9000895762F242F59
:1021B00050E03091EB003E7F3093EB003091ED002A
:1021C0003D7F3093ED003091EB0031603093EB00B8
:1021D0007093EC002093ED005093F0002091EE00FE
:1021E00027FDDECF08958091D80287FF13C080912C
:1021F000E80082FF06C08091E8008B778093E800BA
:10220000089580916B038111F2CF089580916B0343
:102210008115D9F38091E80080FFF8CF8091E80024
:102220008E77ECCF2091E4003091E50095E6A9018E
:102230002091EC00822F817020FF06C08091E80081
:1022400080FF06C080E008952091E80022FD1AC0BA
:1022500080916B03811589F0853089F08091EB00C6
:1022600085FD0FC02091E4003091E500421753072F
:10227000F9F29150E1F684E0089582E0089583E058
:10228000089581E00895CF93DF93C8EDD0E0888171
:102290008F7E8883E7EDF0E080818160808384E039
:1022A00082BF81E08093D70288818E7F8883E2EEAF
:1022B00010821092DA00A1EEB0E01C9288818F7734
:1022C000888388818068888388818F7D888319BC12
:1022D00010926B031092D60210926A031092D502EC
:1022E000A0EE8C918B7F8C9388818160888342E003
:1022F00060E080E048DFA1EEB0E08C918E7F8C93AF
:10230000E2EEF0E08081816080838081886080835C
:10231000E0EE80818E7F8083888180618883DF9179
:10232000CF910895E8EDF0E080818E7F8083109258
:10233000E2001092DA001092E100A0EEB0E08C9181
:1023400081608C9380818F77808319BCA7ED8C91FD
:102350008E7F8C9380818F7E80831092D702089528
:102360009FB7F8941092E1029FBF90916B03943055
:1023700009F047C02091E9009091EC002F7090FB8C
:10238000992797F9922B23E02093E9002091EB0005
:1023900020FF34C02091EE0027FF30C02091E002E2
:1023A000211521F02091E80025FF28C01092E002BD
:1023B00026E03091E80035FF14C08093F100809151
:1023C000E80085FD27C08091E80080FFFCCF809168
:1023D000E8008E778093E8009F709093E90080E09A
:1023E000089530916B03343049F43091EB0035FDA2
:1023F00005C0215041F481E08093E0029F709093EA
:10240000E9008FEF0895EFE9FFE03197F1F700C0A1
:102410000000CFCF8FB7F89421E02093E1028FBF67
:10242000DBCF31B33E7F21B321604FB7F89484EF07
:1024300092E0FC010196508168E021BB000000C0E1
:1024400057FF31BB550F000000C000C000C031BBBA
:1024500000C06A9591F753E08E31950751F74FBF51
:102460008FE594E00197F1F700C00000089581E046
:102470008093E00080E28093D8001092C9008FE141
:102480009EE40197F1F700C00000A7E0B0EBCD019A
:1024900080934C0490934D04A0934E04B0934F044A
:1024A00088E19CE00FB6F894A895809360000FBE79
:1024B00090936000FFCF0F931F93CF93DF93EB01B7
:1024C0008A0190916B03943059F58093E9008FEF66
:1024D0009091E80095FD06C095ED9A95F1F7000002
:1024E0008150B1F78091E80085FF1AC09BDE811111
:1024F00012C08091E80085FD06C08091E8008E77CB
:102500008093E800F3CF88818093F1000150104060
:1025100011F02196EECF8091E8008E778093E8004D
:10252000DF91CF911F910F910895CF93DF93EC012D
:1025300048E050E0BC0181E0BEDF88E0FE01A2EE91
:10254000B2E001900D928A95E1F7DF91CF91089565
:1025500040E250E0BC0182E0AECF43E050E0BC017D
:1025600082E0A9CF109287038091FF0380FF08C00B
:1025700086EB98E09F938F930E9411090F900F9024
:10258000089590911F01913099F0AEEAB2E0EFEF1B
:1025900090E02C91821759F01196EF3F19F4211118
:1025A00001C0E92F9F5F9630A1F7EF3F49F50895ED
:1025B0009091080497FFE9CFE82FE695E695E69518
:1025C000803F68F4F0E0EC54FD4F877021E001C0DB
:1025D000220F8A95EAF78281822B82830895909157
:1025E000FF0390FFE4CF1F928F938EE392E09F93BF
:1025F0008F930E9411090F900F900F900F900895E4
:10260000FE2FFF0FFF0BE455FD4FE7CF90911F0109
:10261000913021F49091080497FD0CC0EEEAF2E0AD
:102620009191891302C0DF011E9292E0E43BF90709
:10263000B9F70895E82FE695E695E695803F70F4A2
:10264000F0E0EC54FD4F9DEF81FD97EF80FF9595F5
:1026500082FD929582818923828308959091FF0360
:1026600090FFE7CF1F928F9380E292E09F938F932A
:102670000E9411090F900F900F900F900895CF9323
:10268000C82F8091090482FB992790F99C17F9F0D3
:10269000C0FB82F9809309046091080470910904D9
:1026A00084E090E00E94942D82E00E94E3098091F2
:1026B000FF0380FF0CC01F92CF938BE89EE09F9397
:1026C0008F930E9411090F900F900F900F90CF9150
:1026D0000895FC01608186E090E00C947A2D0F93C0
:1026E0001F93CF93DF9380911F01813009F06BC05E
:1026F0008091080487FF67C00E94F9098093B502A2
:1027000040E250E062EA73E084EB92E00E945B2DCD
:10271000892B09F453C080E2E4EBF2E0A2EAB3E0D3
:1027200001900D928A95E1F7E091C203F091C30305
:10273000309709F443C00480F581E02D3097F1F122
:1027400086E08093B40284EB92E009958091FF03C8
:1027500082FF34C080FF0EC08091B5021F928F931C
:1027600085E59EE09F938F930E9411090F900F9033
:102770000F900F90C4EBD2E00FE41EE08091FF03B6
:1027800080FF0BC08A811F928F931F930F930E942B
:1027900011090F900F900F900F90219682E0C23D8B
:1027A000D80761F78091FF0380FF08C08DE49EE0A9
:1027B0009F938F930E9411090F900F90DF91CF91FB
:1027C0001F910F9108950E94F9098093AC0248E08F
:1027D00050E064EC73E08CEA92E00E945B2D892B60
:1027E00069F388E0ECEAF2E0A4ECB3E001900D922A
:1027F0008A95E1F7E091C203F091C3033097F1F2BB
:102800000280F381E02D3097C9F28CEA92E00995BD
:102810008091FF0382FFD2CF80FF0EC08091AC0277
:102820001F928F9382E79EE09F938F930E941109DE
:102830000F900F900F900F900CEA12E0C2EBD2E0D5
:102840008091FF0380FF0EC0F80182811F928F9359
:102850008CE69EE09F938F930E9411090F900F903A
:102860000F900F900F5F1F4FC017D10749F780914E
:10287000FF0380FFA3CF8AE69EE09ACF811509F47B
:102880003FC0823849F4A9DB81FF3AC089E379DE91
:1028900026DF89E3BBDE23CF833841F49EDB80FF54
:1028A0002FC083E56EDE1BDF83E5F4CF843841F46F
:1028B00094DB82FF25C087E464DE11DF87E4EACF82
:1028C000982F9450913A30F3982F905E983058F4A6
:1028D000982F81E091FD84E090FD880F92FD829514
:1028E0000E94200AD8CF982F955A933018F480E090
:1028F00090E082CB885A8B3118F480E090E0A3CB33
:102900000895811531F090910004982B9093000464
:10291000E6CE0895811519F00E94200AE0CE0895B0
:102920001092000480911F01813099F48091080475
:1029300087FF0FC0E6EBF2E08EE111928A95E9F78E
:1029400080E090E059DB80E090E07DDB10920A04AB
:10295000C6CEEEEAF2E086E0F0CFE2DF8FEF94E35E
:102960002CE0815090402040E1F700C0000088E159
:102970009CE00FB6F894A895809360000FBE9093EA
:102980006000FFCFCF93C82F1F928F938CE592E00A
:102990009F938F930E94110981E090E002C0880FFD
:1029A000991FCA95E2F70E942A09BADF0F900F908B
:1029B0000F900F90CF910895AAE2B0E0E2EEF4E11B
:1029C0000C94E32D88ED92E0FC0101962091F1003A
:1029D000208322E0803E9207B9F78091D9028930A6
:1029E00009F457C0C8F4823009F4B2C0833009F446
:1029F00082C0813081F18091E80083FFE6C0809140
:102A0000D8029091D9029A3008F0DFC0E92FF0E0A7
:102A1000E25CF14D0C94EF2C8A3009F489C08B30C4
:102A200051F78091D802813231F78091DC02909188
:102A3000DD02892B01F78091E800877F8093E80011
:102A4000D2DB81E09091DA02911101C080E08093A5
:102A50001F0166DFD0CF8091D802813A61F6809164
:102A6000E800877F8093E8008091DC029091DD028E
:102A7000892B59F060E080E090E070E027DB8091E6
:102A8000E8008B778093E800B6CF68E082EE92E0B2
:102A9000F4CF8091D802813209F0ADCF8091DC0271
:102AA0009091DD02029708F0A6CF8091E800877F21
:102AB0008093E8008091E80082FF18C02091F30025
:102AC0008091F200922F029731F48091F1008130D1
:102AD00011F0863021F48091F10080931E018091E5
:102AE000E8008B778093E8007EDB85CF80916B03D5
:102AF0008111E0CF80CF8091D802813A09F07BCF5D
:102B00008091DC029091DD02892B09F074CF8091D5
:102B1000E800877F8093E8008091E80080FFFCCF89
:102B200080911F018093F1008091E8008E77DACFC9
:102B30008091D802813209F05ECF8091E800877FD2
:102B40008093E80050DB8091DB0280931D0153CF1E
:102B50008091D802813A09F04ECF8091E800877FBA
:102B60008093E8008091E80080FFFCCF80911D01F8
:102B7000D9CF803889F0823841F58091DC028F709E
:102B8000873018F58093E9008091EB0085FB88275A
:102B900080F91092E90006C080916A03880F909135
:102BA000D502892B9091E800977F9093E80080935D
:102BB000F1001092F1008091E8008E7723C081111E
:102BC00016C08091DA02813009F18091E80083FF1C
:102BD0000AC08091E800877F8093E8008091EB0035
:102BE00080628093EB00AA96E3E00C94FF2D823084
:102BF00061F78091DA02811579F01092E9008091F5
:102C0000E800877F8093E800EEDADFCF933009F0A9
:102C100080E080936A03F1CF8091DC028F70282FCF
:102C20002150263090F68093E9002091EB0020FFA0
:102C3000E4CF933031F48091EB0080628093EB001D
:102C4000DCCF9091EB0090619093EB0021E001C00C
:102C5000220F8A95EAF72093EA001092EA00809109
:102C6000EB008860EBCF8111B0CF8091DA028F77D3
:102C7000182F8091E3008078812B8093E30080916E
:102C8000E800877F8093E800AEDA8091E80080FF5B
:102C9000FCCF8091E30080688093E30083E0111112
:102CA00001C082E080936B0390CF8058823008F09F
:102CB0008CCF8091DA029091DB028C3D23E0920769
:102CC00089F583E08A838AE289834FB7F894DE012D
:102CD000139620E03EE051E2E32FF0E050935700DE
:102CE000849120FF03C082958F703F5F8F708A3080
:102CF000B8F0895C8D931D922F5F243169F74FBF27
:102D00008091E800877F8093E8006AE270E0CE015E
:102D10000196DCD98091E8008B778093E80055CF4D
:102D2000805DE8CF292F30E02330310509F44DC014
:102D300078F52130310509F47CC084E590E0E2E7C4
:102D4000F1E02230310509F040CF2091E800277FE3
:102D50002093E8002091DE023091DF028217930772
:102D600008F49C0140E02115310509F067C04111CC
:102D700065C08091E80082FDCDCF80916B03811505
:102D800049F2853039F28091E80083FFF2CFC2CF5B
:102D90008091DC029091DD0221323105D9F122329D
:102DA000310509F012CF8330910508F00ECFFC01F8
:102DB000EE0FFF1FED50FE4F0190F081E02D80518E
:102DC0009E4FDC018C9190E011C0282F30E08130C3
:102DD00089F022303105B1F0232B09F0F6CEE8E07E
:102DE000F2E0E4918E2F90E0E8E0F2E0009709F441
:102DF000ECCEABCFECEEF1E0E4918E2F90E0ECEE78
:102E0000F1E0F4CFE8EDF1E0E4918E2F90E0E8ED11
:102E1000F1E0ECCF8330910508F0D7CE880F991FF1
:102E2000FC01E750FE4F0190F081E02D89E090E039
:102E30008CCF82E190E0E6ECF1E087CF80916B03EC
:102E4000811509F467CF853009F464CF8091E800DB
:102E500083FD60CF8091E80082FD8BCF8091E800F8
:102E600080FF81CF4091F3008091F200942F2115D3
:102E7000310519F08830910550F041E0089709F0CC
:102E800040E08091E8008E778093E8006CCF449119
:102E90004093F1003196215031090196E8CF8038F6
:102EA00009F093CE8091E800877F8093E8008091BD
:102EB000D6028093F1007FCE811187CE8091DA0215
:102EC000182F823008F081CE8091E800877F8093B0
:102ED000E8001093D60287D91115B9F084E08093E9
:102EE0006B0342E061EC81E04ED942E261EC82E0AA
:102EF0004AD942E261EC83E046D980916B03843089
:102F000051F482E08093200160CE8091E30087FD40
:102F1000E5CF81E0E4CF81E0F5CF0F93CF93DF934E
:102F2000C7EFD3E0488159816A817B8188E090E0D6
:102F30000E948C2D6C81262F60E070E0CB01622F07
:102F400083E20E947A2DDF91CF910F91089585E061
:102F50008093F7031092F8038FEF8093F903809327
:102F6000FA031092FB0387EF93E0D7CFA1E0B0E024
:102F7000ECEBF7E10C94E42D63EE7EEF80E090E063
:102F80000E94942D60E082E090E00E947A2D81E022
:102F900090E0809303041092040461E083E00E94B7
:102FA0007A2D60E074E184E090E00E94942D198213
:102FB000CE0101968EDBCBDF60E070E0AB018FE0ED
:102FC00090E00E948C2D60E070E0AB0183E190E026
:102FD0000E948C2D2196E2E00C94002E8091FB0340
:102FE000833018F48F5F8093FB0387EF93E095CFD6
:102FF0008091FB03811519F081508093FB0387EFCB
:1030000093E08BCFA1E0B0E0E8E0F8E10C94D42DA0
:10301000582E062F142F322E9091F70390FF41C0A7
:10302000E92FE695E695AE2FA150BE4F8C91809387
:1030300086039C7F9430C9F5652D702F842F0E94E4
:10304000C40C962F672F482F892F0E94680D50922D
:10305000F8030093F9031093FA03311409F47FC0C5
:1030600087EF93E05ADF8091FF0380FF1AC08091C1
:10307000FA031F928F938091F9031F928F9380918F
:10308000F8031F928F938FE099E09F938F930E9494
:1030900011098DB79EB708960FB6F8949EBF0FBE64
:1030A0008DBF2196E2E10C94F02D823019F410913D
:1030B000FA03CDCF863019F45090F803C8CF893089
:1030C000D9F3893121F6E951E0FB882480F881E0C9
:1030D0008825E695F0E0E55AF64F4490A12CB12CF6
:1030E0007501742C612CC82ED12CC5016EE070E0E6
:1030F0000E94C82C952C961A811002C0650D962E40
:103100002E2CF9828091FF0380FF16C06F927F9270
:10311000DF92CF921F929F92FF92EF9284E399E009
:103120009F938F930E9411098DB79EB70A960FB691
:10313000F8949EBF0FBE8DBF222D3981412F602F85
:10314000892D0E94460D8FEFE81AF80AA40CB11CD5
:103150008EE0E816F10449F60E94530D78CF809175
:10316000FF0380FF9ECF1F921F9310E01F920F93CB
:103170001F925F9288EE98E088CFE7EFF3E08181BD
:1031800021E043816281885F3DCFE7EFF3E08181F9
:1031900021E043816281885035CFE7EFF3E062811F
:1031A00028E0620F08F46FEF21E0438181812ACF8C
:1031B000E7EFF3E0628128E0621B08F460E021E0C1
:1031C000438181811FCFE7EFF3E0438128E0420F85
:1031D00008F44FEF21E06281818114CFE7EFF3E043
:1031E000438128E0421B08F440E021E062818181B4
:1031F00009CF8F929F92AF92BF92CF92DF92EF92C0
:10320000FF920F9388E090E00E94702D4B015C01CB
:103210006093F7039092F8038093F903B092FA0356
:103220001092FB031092FC031092FD031092FE0318
:1032300083E290E00E94682D9401A5018092F7033B
:103240003093F803A092F9035093FA038093FB03A1
:103250001092FC031092FD031092FE030F91FF9059
:10326000EF90DF90CF90BF90AF909F908F90089598
:1032700086E090E00E94682D8093F40382FD12C0E6
:103280008091FF0380FF08C08AE697E09F938F93A9
:103290000E9411090F900F908DE28093F40384EF48
:1032A00093E017DA8091F403803320F0877088620E
:1032B0008093F4039091F403892F817090FF04C0F0
:1032C000892F8695869586950C94A80FA2E0B0E08C
:1032D000ECE6F9E10C94DB2DE82FE550EF3308F034
:1032E0007DC1F0E0E85BF14D0C94EF2C83E090E0C1
:1032F0000E94682D1F921F921F928F938CED93E076
:103300009F938F930E94110982E090E00E94682DA4
:1033100083FB992790F91F929F9382FB992790F93D
:103320001F929F9381FB992790F91F929F93982F4B
:1033300091701F929F931F928F9383E993E09F93C5
:103340008F930E94110984E090E00E94752D93FBF9
:10335000222720F91F922F9387FB222720F91F9203
:103360002F9386FB222720F91F922F9385FB22277C
:1033700020F91F922F9384FB222720F91F922F936D
:1033800083FB222720F91F922F9382FB222720F90B
:103390001F922F9391FB222720F91F922F93292F01
:1033A00021701F922F9381FB222720F91F922F93C8
:1033B000282F21701F922F939F938F9384E992E07F
:1033C0009F938F930E9411098DB79EB78C960FB66D
:1033D000F8949EBF0FBE8DBF86E090E00E94682DDE
:1033E000282F2695269526951F922F93982F91701A
:1033F0001F929F931F928F9381E692E09F938F93EA
:103400000E9411098DB79EB708960FB6F8949EBF1B
:103410000FBE8DBF09C089ED96E09F938F930E94E8
:103420001109A4DD0F900F9081E02296EBE00C943F
:10343000F72D8AEF93E09F938F930E941109F2CFAB
:103440008091FF03807F8093FF0380EA9EE09F933B
:103450008F930E94110985ED96E09F938F930E94B0
:10346000110981E08093F0030F900F900F900F905F
:10347000DBCF89EB96E09F938F930E94110950DA7E
:103480008FEF94E32CE0815090402040E1F700C0A2
:1034900000000E9437129091FF03892F8E7F90FFCA
:1034A00081608093FF0380FF03C08DEA96E0C3CF65
:1034B00080EA96E09F938F930E9411098091FF0309
:1034C000817F8093FF03AECF9091FF03892F8D7F83
:1034D00091FF82608093FF0381FF0AC083E996E039
:1034E0009F938F930E9411098091FF038160E9CF20
:1034F00085E896E0A0CF9091FF03892F8B7F92FF04
:1035000084608093FF0382FF03C086E796E0E8CFE4
:1035100086E696E090CF9091FF03892F877F93FFF7
:1035200088608093FF0383FF03C08AE596E0D8CFCD
:103530008DE496E080CF81E291E09F938F938FEAB4
:1035400095E09F938F930E9411098ECF0E9459108E
:10355000E62EB72EA82E992EF0900804F7FAFF2435
:10356000F0F800911D0110E080911F01C82ED12CB0
:103570000E94ED0F9F92AF92BF92EF921F92FF9227
:103580001F920F93C9821A829A819F93C9821A82CD
:1035900099819F931F928F9382EB95E09F938F93D6
:1035A0000E9411098DB79EB70E962FCFB9D9909171
:1035B0000804892F97FB87F980588093080487FFB8
:1035C00003C083E496E037CF88E396E034CF80E011
:1035D000D9D92ACF8953FCCF8D51FACF86E396E013
:1035E0009F938F930E9411090F900F9080E01DCF41
:1035F000CF93C82F8115B9F08238B9F40E94ED0F2E
:1036000081FD11C089E30E94C11269D88FEF97EE46
:1036100023E0815090402040E1F700C0000089E3A2
:103620000E9406135CD8CF910895833899F40E94C4
:10363000ED0F80FDF8CF83E50E94C11250D88FEFC7
:1036400091EE24E0815090402040E1F700C000005E
:1036500083E5E6CF843899F40E94ED0F82FDE3CF35
:1036600087E40E94C1123BD88FEF91EE24E0815095
:1036700090402040E1F700C0000087E4D1CF8450A3
:10368000813A08F069C08091F003813020F0F9F0B0
:103690001092F00308C080910004823221F48C2F34
:1036A00015DE8111C0CF80911F018130B9F1EEEAA2
:1036B000F2E084EB92E02081C21709F447C0319612
:1036C0008E179F07C1F78C2F0E94C112ABCF80913C
:1036D0000004823221F3C932D9F268F4CB3069F0A8
:1036E000C431B1F28BEB9EE09F938F930E9411093E
:1036F0000F900F90D8CFC833A9F780EA9EE09F9330
:103700008F930E9411098DEB9EE09F938F930E94EF
:1037100011090F900F900F900F9085CF80910804A2
:1037200087FFC5CFEC2FE695E695E695F0E0EC54E3
:10373000FD4F828190E04C2F477021E001C0220FA5
:103740004A95EAF78223892B09F4BDCF8C2F0E947A
:1037500006130E946F13B7CF8C2F805E883060F401
:10376000C77081E001C0880FCA95EAF7C0910004D4
:10377000C82BC093000456CF8C2F855A833030F469
:103780008C2F8452990B0E94FC0F4DCFC85ACB311D
:1037900008F049CFEC2FF0E0EE0FFF1FED58FD4F82
:1037A000808191810E9423103ECFAAE0B0E0EBED32
:1037B000FBE10C94DC2DFE013196DF018AE01D92C5
:1037C0008A95E9F79AE2E92E92E0F92E8F01BE2E52
:1037D000A12EF70181917F018F3F09F444C0F89435
:1037E000E82FE295EF70F0E021A18F7041E001C079
:1037F000440F8A95EAF7922F942B91A392A1842FDC
:103800008095892382A3789400C0EFE2F2E021E062
:1038100030E0C12CD12C41914F3F79F0A42FA295DB
:10382000AF70A05EB0E08C9190E04F7002C09595B3
:1038300087954A95E2F780FF3EC080E090E0C82A75
:10384000D92A220F331F82E0ED33F80721F7F70161
:1038500082918F3F11F00E94AD0C80EA8A95F1F7BA
:10386000F801C082D1820E5F1F4F8FE2E81682E01E
:10387000F80609F0AECF4AE050E06B2D7A2D86E9CC
:1038800093E00E945B2D892BC1F08AE0EB2DFA2D8D
:10389000A6E9B3E001900D928A95E1F781E080936B
:1038A0008B030E944D108093890390938A032A967C
:1038B000EAE00C94F82DC901C2CF80918B038115E9
:1038C000B1F30091890310918A030E944D10801B6F
:1038D000910B059760F34AE050E066E973E08CE8ED
:1038E00093E00E945B2D892B49F08AE0E6E9F3E042
:1038F000ACE8B3E001900D928A95E1F710928B034A
:10390000D6CFA0E0B0E0E7E8FCE10C94DA2DFC01B2
:103910008281A82EB48081E08483E6EBF7E00491F5
:10392000E5E3F8E0E491E090FA03E6948FE7E80E2F
:10393000F12CEE0CFF1CEF2CF12CCEE1D3E06D014D
:103940001FEFE01B8E2F90E04C018A2D833030F466
:103950008091F80388838091F9038983B11017C09F
:103960001B821A8296014A81698188810E94460DD4
:103970008FEFC81AD80A25968EE0C816D10429F709
:103980000E94530DCDB7DEB7ECE00C94F62D8B8181
:103990008115E1F081508B83189FC00111246C8147
:1039A00070E00E94C82C70E0FB01EA54F84F84914B
:1039B000801B189FC0011124B4010E94C82C809163
:1039C000FA03689FB00111247A83CCCF0E94422D64
:1039D0006FEF70E00E94DC2C8E159F051CF68A2D7F
:1039E000833090F00E94422D6FEF70E00E94DC2C3B
:1039F00088830E94422D2091F9032695622F70E062
:103A00000E94DC2C280F29831A828091FA03893CBA
:103A100020F088EC8C838B83A5CF8431D8F784E1A8
:103A2000F9CF6091F7036695669570E04BE050E042
:103A300088E091E00E944E2D892B19F481E080935B
:103A400087030E944D10809380039093810380919F
:103A5000FF0380FF08C08FEC98E09F938F930E9434
:103A600011090F900F9008959091F70390FF43C0B4
:103A7000811509F441C08B3208F040C08F7320914A
:103A8000F7032370982F990F990F922B9093F703B8
:103A90006115B1F187EF93E040DA8091FF0380FF79
:103AA00010C08091F703869586951F928F938EE7BD
:103AB00099E09F938F930E9411090F900F900F90A0
:103AC0000F906091F7036695669570E04BE050E0CB
:103AD00088E091E00E944E2D892BD9F00E94B2120D
:103AE00081E08093830320E04091FA036091F90321
:103AF0008091F80387CA089581E0C1CF8AE2BFCFE1
:103B00009091FF0390FFDDCF1F928F9380E699E0A5
:103B1000D0CF87DFE5CF8091F703869586958F5FBD
:103B20008B3208F081E061E09FCF8091F7038695AA
:103B30008695815009F48AE261E096CFFF920F9357
:103B40001F93CF93DF93C62FD42FF22E8115B1F0A0
:103B50006093F5030E944D108093F2029093F3025C
:103B600081E0C1FD84E0C0FD880FC2FD82950E9406
:103B70008114CDB7DEB7E5E00C94FD2D8091F503FF
:103B8000681334C00091F2021091F3020E944D10AC
:103B9000801B910B883C910548F51D2F105ECD17B9
:103BA000A1F0C77001E0802F01C0880FCA95EAF725
:103BB0000E948A14183048F48D2F877001C0000FBE
:103BC0008A95EAF7802F0E9481148F2D11DD8F2DA9
:103BD0000E943E1481E0D1FD84E0D0FD880FD2FD2B
:103BE0008295183030F60E948A14C3CF81E0C1FD5F
:103BF00084E0C0FD880FC2FD8295F5CFA0E0B0E063
:103C0000E4E0FEE10C94DE2D7C01FC018481811551
:103C100051F161E0C7010E945D0CEC01F701858163
:103C2000811509F411C1FE01F857E730F10508F0DC
:103C30000BC1E957F14D0C94EF2C85E00E94CB0F9E
:103C400084EF93E00E94691380910704877059F014
:103C5000F7018581811539F08091090482FF03C045
:103C600082E00E94E309CDB7DEB7E8E00C94FA2DBC
:103C700080E0E4CF8091F403883088F0885080930E
:103C8000F40391E0883008F490E08091F40390FB15
:103C900080F98093F40384EF93E00E94691380918C
:103CA000FF0380FF49C58091F4038695869586952C
:103CB0001F928F9381E89FE09F938F930E94110939
:103CC0000F900F900F900F9037C59091F403892FAC
:103CD000869586958695983240F48F5F880F880F79
:103CE000880F9770892B8093F4038091F40381608F
:103CF0008093F40384EF93E00E9469138091FF03A3
:103D000080FF1AC58091F4038695869586951F924B
:103D10008F9389E69FE0D0CFC091F4038091FF0399
:103D200080FFECC48C2F81701F928F9383E59FE0FE
:103D30009F938F930E9411090F900F900F900F90F7
:103D4000C0FFDEC48091F40380FF7ECF8091F40336
:103D50008E7F8093F40384EF93E00E946913809137
:103D6000FF0380FF08C08EE29FE09F938F930E9425
:103D700011090F900F9080E00E94A80F65CF8091ED
:103D8000F4038695869586958F5F8F71863008F04F
:103D900080E0880F880F880F9091F4039770892B2B
:103DA0008093F40391E0883008F490E08091F4036C
:103DB00090FB80F98093F40384EF93E00E946913F1
:103DC0008091FF0380FFB8C48091F40386958695A7
:103DD00086951F928F938AE19FE06ECFC091F40386
:103DE0008091FF0380FFAEC4C1FB882780F91F923A
:103DF0008F938AEF9EE09F938F930E9411090F90FB
:103E00000F900F900F90C1FF9FC48091F40381FF2A
:103E10001BCF8091F4038D7F8093F40384EF93E0B4
:103E20000E9469138091FF0380FF08C081EC9EE02F
:103E30009F938F930E9411090F900F9080916F00B4
:103E40008E7F80936F0078C4FE01E851FC47E73015
:103E5000F10500F5E257F14D0C94EF2C26E241EE0E
:103E600061EE6CDEF1CE27E245EE65EEFACF26E29A
:103E700041EE60EEF6CF27E245EE64EEF2CF26E2A9
:103E800041EE62EEEECF27E245EE66EEEACF28E2A3
:103E900041E0EBCF811509F47AC41092F5039E013D
:103EA00030572332310508F080C484E090E00E944E
:103EB000752D8093080490930904FE01E150F047AA
:103EC000E232F10520F4EB56F14D0C94EF2C809189
:103ED00008048160809308046091080470910904CB
:103EE00084E090E00E94942D0E949014ADCE8091C9
:103EF0000904886080930904EFCF809108048260F0
:103F0000E9CF809108048460E5CF8091080488603F
:103F1000E1CF809109048160EDCF80910904826036
:103F2000E9CF809108048061D5CF80910804806238
:103F3000D1CF809108048064CDCF0E9490148091ED
:103F400008048068C7CF809108048C60C3CF80913B
:103F500009048360CFCF809108048E7FBBCF80910E
:103F60000904877FC7CF809108048D7FB3CF8091EC
:103F700008048B7FAFCF80910804877FABCF8091FF
:103F800009048E7FB7CF809109048D7FB3CF8091D4
:103F900008048F7E9FCF809108048F7D9BCF8091F6
:103FA00008048F7B97CF0E949014809108048F772C
:103FB00091CF80910804837F8DCF809109048C7FFD
:103FC00099CF90910804892F8B7F92FF8460877F1F
:103FD00092FF88607FCF80910904982F909590FB85
:103FE00080F990FB81F986CF90910804892F8F7B0F
:103FF00096FF80646FCF0E94901490910804892FDF
:1040000097FB87F9805866CF61E08EE090E00E94D0
:104010007A2D62CF60E0F9CF90910804892F8F7ECE
:1040200094FF806157CF90910804892F8E7F90FF75
:10403000816050CF90910904892F877F93FF88601A
:1040400059CF89E2AFC39272FE01E052F847EB30DC
:10405000F10508F080C0E954F14D0C94EF2C8091EB
:10406000FF0380FF10C08091F703839581701F923A
:104070008F9388E090E19F938F930E9411090F9096
:104080000F900F900F908091F70380FF1FC08E7FDD
:104090008093F70387EF93E00E948D178091FF03D1
:1040A00080FF0FC08091F70381701F928F9389E981
:1040B0009FE09F938F930E9411090F900F900F9094
:1040C0000F900E94B2120E94530DBECD816080936A
:1040D000F7038091FF0380FF0DC01F9281E08F9353
:1040E00081ED9FE09F938F930E9411090F900F9095
:1040F0000F900F908091F70361E086958695B4DC70
:10410000A3CD911521F011DD9FCD9115E1F303DDD4
:104110009BCD911521F039D897CD9115E1F32DD88C
:1041200093CD911521F044D88FCD9115E1F335D879
:104130008BCD911521F052D887CD9115E1F343D85D
:1041400083CD911529F00E94F8177ECD9115D9F3F2
:104150000E94EE1779CD9E01205E32452032310556
:10416000A0F4811128C08C2F8F71C1E0D0E002C073
:10417000CC0FDD1F8A95E2F76C2F83E090E00E9460
:104180007A2DCE010E942A095FCD811511F1CB3520
:104190009CE7D90709F489C0CC359CE7D90709F415
:1041A00079C0CA359CE7D90709F47DC0C2309CE7C5
:1041B000D90709F493C0C3309CE7D90708F077C04A
:1041C000C1159CE7D90709F47CC0C130DC4709F46C
:1041D00076C0F70100811181811509F495C0C801ED
:1041E0000E94290CC82F682FC8010E945209B801EB
:1041F0008C2F0E94280A0E943D0BD82FC92FF7014F
:10420000D580068102950F7080910704877001F1B7
:10421000CD2CD114F1F0892F807F803461F08D2F67
:10422000805E8830A8F0892F807E803221F4D230E1
:1042300078F0011569F08091090482FF09C082E0DD
:104240000E94E309809107048770CC24C3948111F4
:10425000C12C8C2F82958F70883009F43FC108F0F3
:1042600072C0843008F055C0823008F47DC01C2F25
:104270001F70C07FC03211F01295107FD13008F44A
:10428000ABC009F4F1C0D11409F4FBC0011509F465
:10429000C0C081C080910904002482FF0394802D56
:1042A0000E943F13D1CC81E0FBCF80E0F9CF09F031
:1042B00090CF6FEF7FEF80E090E00E94942D0E94FE
:1042C000AD140E9490148FEF94E32CE08150904045
:1042D0002040E1F700C000000E9437129091FF03D8
:1042E000892F8E7F90FF81608093FF0380FF09C03C
:1042F00081E590E19F938F930E9411090F900F9099
:10430000A3CC8FE390E1F6CFC8010E948709C82FA4
:104310006ECF09F4C7C0C11409F417C18091070416
:1043200080FD13C1F70115828695869586950E94BA
:104330003409C70163DC80910704869586958695CC
:104340000E94420902C1893009F457C18A5F8F7007
:10435000823008F7D23F09F061C18C2F8F71D110E4
:104360005AC10E943409EFC01C2F1F70C03110F0D9
:104370001295107FD114B9F0111569F08D2F805E60
:10438000883010F0D11109C080910004812B8093F6
:1043900000040E946F138D2F2FC080910A04812B7F
:1043A00080930A04F6CF8D2F0E943E14111509F454
:1043B000B2CF8D2F805E883010F0D11104C0812FD4
:1043C0000E94200A06C0109580910A0481238093E0
:1043D0000A040E946F139FCF8091090482FD15C0CB
:1043E000D11461F0111539F080910004812B809374
:1043F00000040E946F1380E0FBD88DCF80E00E9404
:104400003E14111509F487CFDACFD11499F0013099
:1044100020F4812F0E9481147ECF09F07CCF8091FF
:104420000104912F9823191709F475CF812B8093DC
:10443000010471CF01116FCF812F0E948A149091D6
:104440000104812F892329F0812F8095892380936E
:10445000010480910204912F982309F45CCF1095F8
:1044600018231093020457CFD11421F0063008F01E
:1044700052CFCFCF053008F04ECF812F0E948A1443
:104480004ACF0115D1F3D93349F48FEF97EE23E0EA
:10449000815090402040E1F700C000008D2F0E9425
:1044A0003E1439CF8C2F869586958370813060F0CD
:1044B00009F031CF8D2F9C2F9370D11002C080E076
:1044C00090E00E94231027CF8D2F9C2F9370D11046
:1044D00002C080E090E00E94FC0F1DCF8C2F837003
:1044E00009F046C0D1102FC04D2F42954695477018
:1044F000440F440F2D2F2F7030E0042E02C0220FE6
:10450000331F0A94E2F780E090E0D4FF09C08FE007
:1045100090E002C0880F991F4A95E2F78095909528
:10452000C695C695C370C230D1F0C330A9F0409192
:10453000030450910404C13069F0822B932B84232F
:1045400095230E942A090E94ED0F60E0C7010E9496
:104550005D0C89CB242B352B822B932BF2CF822B16
:10456000932B209103043091040482279327E9CFF1
:10457000D11491F1C0FFE7CF4D2F4295469547707A
:10458000440F440F2D2F2F7030E0042E02C0220F55
:10459000331F0A94E2F780E090E0D4FF09C08FE077
:1045A00090E002C0880F991F4A95E2F78095909598
:1045B000C695C695C370C230B9F0C33091F0409132
:1045C000050450910604C13051F0822B932B8423B3
:1045D00095230E942F09B7CF823070F6B4CF242BD9
:1045E000352B822B932BF5CF822B932B2091050417
:1045F0003091060482279327ECCFCF70D11439F085
:104600008C2F0E9434098D2F0E9481149CCF8D2FF6
:104610000E948A148C2F0E94420995CF70F4D03FDB
:10462000C9F0D13F91F0D11409F454C0011509F437
:104630004EC08D2F0E94F81A86CFD33F11F1D43F80
:1046400091F79091090492FD2AC08C2F8F71D1149B
:1046500011F387CED11499F0053008F074CFCF71E3
:1046600081E090E002C0880F991FCA95E2F7EC0143
:1046700080910504909106048C279D27AACF0630CF
:10468000ECCF80E090E0D11409F4A3CFCF7181E0AA
:1046900090E002C0880F991FCA95E2F79ACFD11413
:1046A00061F08C2F8F7192FF5CCE982F990F990F2C
:1046B000990F93609093070454CE81E00E94E30920
:1046C000023008F440CF82E00E94E3093CCF8C2FF7
:1046D0008F7147CE011579F0D93349F48FEF97EEFA
:1046E00023E0815090402040E1F700C000008D2F72
:1046F0000E943E1428CF8C2F8F718DCFC0FD26CB0A
:104700008091F40380FDA0CA81608093F40381301E
:1047100019F489E08093F40384EF93E00E94691315
:104720008091FF0380FF08C081E49FE09F938F93F7
:104730000E9411090F900F908091F4038695869541
:1047400086951ACBC1FD65CB8091F40381FD7CCAAF
:1047500082608093F40384EF93E00E946913809158
:10476000FF0380FF08C08EED9EE09F938F930E9411
:1047700011090F900F901092F2031092F303109210
:10478000F10380916F00816080936F005DCAC63134
:104790009CE7D90709F0DFCC8091F603811509F475
:1047A00050CC85E30E94061314C090910004C631DA
:1047B0002CE7D20709F047CC9A7A81E0911101C029
:1047C00080E08093F60385E3911101C089E20E94A5
:1047D000C1120E946F1338CA80914B04803170F46B
:1047E00080914A04811551F0E0910C0420910B0452
:1047F00030914604409145042E1301C00895BF0135
:1048000087E0E89FF0011124DF01A35FBB4F1496FE
:104810008C911497811551F111968C9111978313F6
:1048200025C08C91841322C015968C911597811107
:104830001DC012968D919D91A0914704B09148049E
:104840008A1B9B0B883C910588F480914B048F70E8
:10485000806180934B04ED5EFB4F80818F7080619F
:10486000808385E494E0CAD90C94D9096F5F7F4FA7
:10487000FB01E770C1CFADE0B0E0E1E4F4E20C94FD
:10488000D92D8C0186E0F801DE01189601900D9279
:104890008A95E1F7F801F580C48085E4882E84E0EC
:1048A000982E7090490471101FC0C114D1F0F114FA
:1048B00009F415C1C8010E94820C811509F40FC1C9
:1048C00087E0F801D40101900D928A95E1F78C2DD3
:1048D000813031F480914504909146040E94780C17
:1048E0007BDFFF24F39453C0E080A280B380D0909C
:1048F0004A0480914704909148049501281B390B84
:10490000D11409F4B5C0283C310508F08DC0C1149C
:1049100041F390914604C18080914B04803108F0AE
:1049200056C0C91213C0909145049E110FC0F110DA
:1049300048C08F70806180934B0485E494E05ED919
:1049400080914B04F8018683F12C21C0F11039C00D
:1049500040E06C2D8E2D0E94BA0940E06C2D8E2D0A
:104960000E94BA09F82E8111EFCF888599850E949F
:10497000780C292F22952F70903470F49F7022307C
:1049800098F09115A9F0F8019681903188F48F2D57
:104990002D96EDE00C94F52D2A5F2F70223060F0FB
:1049A000C8012CD9FD2CF3CF911511F0811579F3A5
:1049B000805E883060F3F4CF803F48F3815F8330BE
:1049C000F9CF80914B04816080934B04BDCFC91215
:1049D00007C0909145049E1103C0F11409F469C009
:1049E000C8010E94820C811509F479C0F11409F400
:1049F00076C080914B04803270F020914504309154
:104A0000460429833A83AB82BC827D821E828F83D7
:104A1000CE010196F3D887E0F801A5E4B4E0019057
:104A20000D928A95E1F75CCF80914B04803148F478
:104A300085E494E0E3D8F40187E011928A95E9F7E0
:104A400083CFC11409F44DCF2091460491812913DD
:104A5000C7CF909145049E11C3CFF110C1CF86837B
:104A6000C801CCD8F40187E011928A95E9F739CFD3
:104A7000283C310500F7C11409F433CFF11479F162
:104A8000909146048181981320C0809145048E1135
:104A90001CC080914B0480FD0FC0803168F086837C
:104AA000807F803F39F08681982F907F905F8F7054
:104AB000892B8683C801A2D887E0F801A5E4B4E079
:104AC00001900D928A95E1F70CCFC8010E94820CEB
:104AD0008111A1CF80914B04816080934B04C80168
:104AE0008DD8FFCEABE1B0E0E8E7F5E20C94E22D23
:104AF0004E8B5F8B688F798F8A8F192F9B8F9111C7
:104B000010920A041D8A86E0FE017696DE011F9649
:104B100001900D928A95E1F70A8D011561F00B8BDA
:104B20001C8B61E0CE010F960E945D0C61E0CE010E
:104B30000F960E945D0C0B8B1C8B87E0FE013F964D
:104B4000DE01189601900D928A95E1F7CE01089644
:104B500092DE81112EC020910B0430910C0487E06D
:104B6000AE01485F5F4FFA0147505109DA010190E9
:104B70000D928A95E1F78C858115D9F0822F90E00E
:104B80008395877090E0AC0134171506E1F097E04B
:104B9000929FD0011124A35FBB4F9E012F5F3F4F17
:104BA000F90101900D929A95E1F740930B040E9450
:104BB000D90980910C0490910B04891311C06B9654
:104BC000E4E00C94FE2D0E94901410920B041092BD
:104BD0000C04E5E4F4E087E011928A95E9F7E9CF67
:104BE00027E0829FC0011124835F9B4F44DE811523
:104BF00031F380910C0490910D040196877080939D
:104C00000C04D7CFA6E0B0E0E7E0F6E2DBC70E94F5
:104C10004D108C018091A0039091A1038017910702
:104C200071F019821A820E944D10BC0149815A818B
:104C300080E090E057DF0093A0031093A103269635
:104C4000E4E0DCC7CDB7DEB72A970FB6F894DEBF35
:104C50000FBECDBF85B7806885BF85B7806885BF2B
:104C600084B7877F84BF0FB6F894A89580916000C1
:104C7000886180936000109260000FBE80E890E031
:104C80000FB6F89480936100909361000FBE81E0AD
:104C90008093200180EB91E18093AA029093AB0274
:104CA0000E9492110E9443118091E20084608093DF
:104CB000E200789480916B03811599F08091E9006E
:104CC0001091EC008F7010FB112717F9182B109220
:104CD000E9008091E80083FD0E94DC141F701093AE
:104CE000E90082E084BD93E095BD9AEF97BD809383
:104CF0006E00EAE2EE2EE2E0FE2E0FE212E0F70195
:104D000081917F018F3F11F00E94AD0C0E151F05A0
:104D1000B1F77FE2E72E72E0F72E0DE312E0F70124
:104D200081917F018F3F11F00E94AD0C0E151F0580
:104D3000B1F7ECE8F3E08AE011928A95E9F7E6E949
:104D4000F3E08AE011928A95E9F780E090E0CDD611
:104D5000833E9E4F11F00E94B61782E090E0B8D6D5
:104D60008093FF0384E090E0C0D680930804909382
:104D700009040E94D51B8FEF96E721E081509040F7
:104D80002040E1F700C000000E94D51B80918C03F9
:104D900080FF07C06FEF7FEF80E090E0C5D60E94F4
:104DA000371283E090E094D690E00E942A09279A77
:104DB0002F988AE08093800089E1809381008FEFB3
:104DC0009FEF90938700809386000E94381980910E
:104DD000F40381FF0BC01092F2031092F3031092C0
:104DE000F10380916F00816080936F000E943819F9
:104DF000809166038111CFC08091FF0380FF08C0BE
:104E00008EEB9BE09F938F930E9411090F900F9060
:104E100087EF93E00E94F9188091F703843008F03F
:104E2000D6C08091FF0380FF08C085E79BE09F9379
:104E30008F930E9411090F900F900E94A71787EF80
:104E400093E00E94F9188091F703843008F0BFC006
:104E5000837084608093F7038091FF0380FF8BC091
:104E60008CE59BE09F938F930E9411098091FF0333
:104E70000F900F9080FF7FC08091F70381701F9289
:104E80008F938FE39BE09F938F930E9411098091F2
:104E9000FF030F900F900F900F9080FF6CC08091D8
:104EA000F703869581701F928F938FE19BE09F930C
:104EB0008F930E9411098091FF030F900F900F9024
:104EC0000F9080FF58C08091F703869586951F92BA
:104ED0008F9384E09BE09F938F930E9411098091B0
:104EE000FF030F900F900F900F9080FF44C08091B0
:104EF000F8031F928F938AEE9AE09F938F930E94FC
:104F000011098091FF030F900F900F900F9080FF79
:104F100032C08091F9031F928F9380ED9AE09F93A6
:104F20008F930E9411098091FF030F900F900F90B3
:104F30000F9080FF20C08091FA031F928F9386EB21
:104F40009AE09F938F930E9411098091FF030F9025
:104F50000F900F900F9080FF0EC08091FB031F9267
:104F60008F938AE99AE09F938F930E9411090F9083
:104F70000F900F900F90109287030E94E00F809186
:104F8000F70380FF05C060E0869586950E94341D7A
:104F900081E08093660383E191E08093C203909364
:104FA000C30380916B03853009F0CAC08091FF0371
:104FB00080FF08C087E49CE09F938F930E941109B3
:104FC0000F900F9000E110E462E1F62E89C080910D
:104FD000F7038C3A08F440CF8370886A3BCF809106
:104FE0006B03843009F44CC080E00E94CB0F0E9418
:104FF000B21280916903811120C081E0809369031E
:105000008091F703982F9170909368038E7F80931F
:10501000F7038091FF0380FF0CC01F921F9284ED65
:105020009BE09F938F930E9411090F900F900F9018
:105030000F900E94B2120E94530D1092670388E1F4
:1050400090E00FB6F894A895809360000FBE10937F
:10505000600083B7817F846083BF83B7816083BF33
:105060007894889583B78E7F83BF0FB6F894A89500
:1050700080916000886180936000109260000FBE94
:105080000E94D51BECE8F3E0ACE6B3E080E02191B0
:1050900031912D933D9391E0232B09F490E0892BDE
:1050A00026E933E02E173F0791F78115C9F080916B
:1050B0006A038115A9F009BDF9BC09B400FEFDCF52
:1050C0008091D8008F7D8093D8008091E00082602D
:1050D0008093E0008091E00081FDFCCF0E9490145D
:1050E00080916B03853009F47ACF0E9490140E945E
:1050F00038190E94ED0F10926903809168038115A1
:10510000E9F08091F70381608093F7038091FF03BA
:1051100080FF0DC01F9281E08F938EE09CE09F93F3
:105120008F930E9411090F900F900F900F90809114
:10513000F70360E0869586950E94341D0E94111D3C
:105140000E94D51B56E7252E53E0352E8CE893E0C0
:105150008F839887FC01D1012D913D9180819181B0
:1051600040E853E04A175B0709F4BAC032962817A3
:10517000390791F38091FF0381FF4AC08DE69CE0DF
:105180009F938F930E9411090F900F900CE813E0EA
:10519000C12CD12C98E6492E9CE0592E25E6622E92
:1051A0002CE0722E3FE5832E3CE0932E4DE5A42E9D
:1051B0004CE0B42EDF92CF925F924F920E94110981
:1051C0007F926F920E941109F8018081F1800E5F39
:1051D0001F4F0E941A09E82E8F2D0E941A09EF9284
:1051E0008F939F928F920E941109BF92AF920E945B
:1051F00011098FEFC81AD80A8DB79EB70C960FB653
:10520000F8949EBF0FBE8DBF85E0C816D10491F6FD
:105210000CE613E0512CEF81F885E190F190EF83DB
:10522000F887F101819191911F018E159F0509F475
:105230004DC08E259F2589879A87C12CD12C560178
:10524000A39489859A858A219B21892B91F1470115
:105250008A209B20B1E06B2E712C0C2C02C0660CB6
:10526000771C0A94E2F7F8018081918186219721C9
:10527000892BA1F4C9825A820E944D108B839C8392
:1052800081E08D8391E08114910409F490E09E8384
:1052900049815A816B817C818D8124DC892849F484
:1052A00060947094F8018081918186219721808398
:1052B0009183AA0CBB1C8FEFC81AD80A8EE0C816BF
:1052C000D10409F0BECFF101F292E29253940E5F45
:1052D0001F4F852D853009F09ECF0E94591005C0C3
:1052E0002817390709F046CF8DDC80918703811597
:1052F00009F444C080918603E091F703E695E695B2
:10530000E81BE0938203853109F4B3C008F064C060
:10531000893009F4A2C008F050C0823009F487C077
:10532000863009F48FC000ED17E0F3ECEF2EFCE0BF
:10533000FF2E80918303811561F0109283030E94F8
:105340004D108093800390938103109284031092F8
:1053500085030E944D102091800330918103821BB0
:10536000930B8F3F9F4750F4200F311F20938003F2
:105370003093810380E893E0F70109950E94ED0FD7
:10538000182F80918803181709F40BCE1093880307
:105390000E9459108091FF038570853009F001CE7D
:1053A0001F921F9389E99CE09F938F930E9411099C
:1053B0000F900F900F900F90F4CD8F3009F0B3CF76
:1053C000E695F0E0E457F34FE4910E2F10E05BED2B
:1053D000E52E5DE0F52EADCF04EF11E098E0E92E6B
:1053E0009FE0F92E843209F4A4CF78F4883109F4CF
:1053F0004BC0833209F097CFE7E8FCE005911591A7
:105400003EEEE32E3EE0F32E94CF853209F08BCFB3
:105410008E2F63E0A4D2E92FF0E0EC57F34FE49134
:105420000E2F10E021E8E22E2CE1F22E82CFF0E0E8
:10543000EB56F34FE4910E2F10E0E2EAEE2EEDE092
:10544000FE2E77CFF0E0EE56F34FE4910E2F10E0F2
:1054500073E9E72E7DE0F72E6CCFE695F0E0E1579B
:10546000F34FE4910E2F10E065EBE62E6DE0F62E83
:1054700060CFF0E0E757F34FE4910E2F10E045E3E3
:10548000E42E4EE0F42E55CF08E210E08DE7E82E32
:105490008EE0F82E4ECF1F920F920FB60F9211246E
:1054A0002F933F934F935F936F937F938F939F932C
:1054B000AF93BF93EF93FF93809104018230A1F0EB
:1054C0008F5F80930401FF91EF91BF91AF919F9106
:1054D0008F917F916F915F914F913F912F910F909D
:1054E0000FBE0F901F90189581E08093040180916A
:1054F000F2039091F303019660ED72E049D280933C
:10550000F2039093F30365E070E042D267FD6FE72A
:105510008091F103823061F5603429F480916F004D
:105520008E7F80936F00E62FF0E0E651F94F2491D3
:10553000A0918600B091870030E06DD32FEF40E05E
:1055400050E078D3C90165E070E022D28091F40385
:10555000869586958695282F269FC001279F900DBA
:1055600011240E94340F90938D0080938C00ABCF58
:105570008130C9F66F37D1CF1F921FB61F92112409
:105580008F939F93AF93BF9380916703811113C053
:105590008091EA029091EB02A091EC02B091ED02B1
:1055A0004196A11DB11D8093EA029093EB02A09356
:1055B000EC02B093ED02BF91AF919F918F911F903C
:1055C0001FBE1F90189578941F921FB61F9211242A
:1055D0008F939F93AF93BF938091EA029091EB02D8
:1055E000A091EC02B091ED020196A11DB11D809336
:1055F000EA029093EB02A093EC02B093ED02BF910C
:10560000AF919F918F911F901FBE1F9018951F9271
:105610000F920FB60F9211242F933F934F935F93E6
:105620006F937F938F939F93AF93BF93EF93FF936A
:105630008091E10082FF14C08091E20082FF10C0DF
:105640008091E1008B7F8093E1002091D4022F5F55
:10565000822F62E384D1911509F4DCC02093D40237
:105660008091DA0080FF2CC08091D80080FF28C094
:105670008091DA008E7F8093DA008091D90080FFDC
:10568000FEC080E189BD82E189BD09B400FEFDCF85
:1056900081E080936B038CE092E09F938F930E9454
:1056A00011098091D7020F900F90811109C00E94BB
:1056B00092110E9443118091E20084608093E20085
:1056C0008091E10080FF22C08091E20080FF1EC037
:1056D0008091E2008E7F8093E2008091E200806101
:1056E0008093E2008091D80080628093D80019BC3A
:1056F00085E080936B0384E192E09F938F930E94F7
:10570000110983E0809320010F900F908091E100B8
:1057100084FF37C08091E20084FF33C080E189BDFF
:1057200082E189BD09B400FEFDCF8091D8008F7D54
:105730008093D8008091E1008F7E8093E10080917A
:10574000E2008F7E8093E2008091E200816080938E
:10575000E2008091D602811509F49FC084E0809315
:105760006B0388E192E09F938F930E9411098091CF
:105770006B030F900F90843009F097C082E0809304
:1057800020018091E10083FF34C08091E20083FF1B
:1057900030C08091E100877F8093E10082E08093B8
:1057A0006B031092D6028091E1008E7F8093E1001E
:1057B0008091E2008E7F8093E2008091E200806120
:1057C0008093E20042E060E080E00E94C31080919C
:1057D000F00088608093F0008CE192E09F938F93BB
:1057E0000E94110981E08093200180931F010F9096
:1057F0000F90FF91EF91BF91AF919F918F917F910A
:105800006F915F914F913F912F910F900FBE0F902D
:105810001F9018951092D4028091E102811509F42D
:105820001FCF80916B038430B9F49091E90080918F
:10583000EC009F7080FB882787F9892B93E0909379
:10584000E9009091EB0090FF04C09091EE0097FD6D
:1058500008C08F708093E9001092E10201CF10928E
:10586000F1009091E80095FDFACF9091E80090FF4B
:10587000F0CF9091E8009E779093E800EACF19BCB2
:1058800010926B0380E192E09F938F930E94110925
:105890001092D7020F900F9013CF8091E30087FFF3
:1058A00002C083E05CCF81E05ACF81E068CF1F92D5
:1058B0000F920FB60F9211241F932F933F934F9384
:1058C0005F936F937F938F939F93AF93BF93CF9388
:1058D000DF93EF93FF93E9EEF0E080811091EC000D
:1058E0008F7010FB112717F9182B1082C0EFD0E032
:1058F0008881877F888378940E94DC14E9EEF0E049
:1059000010828881886088831F701083FF91EF91D7
:10591000DF91CF91BF91AF919F918F917F916F91C7
:105920005F914F913F912F911F910F900FBE0F905C
:105930001F90189570D1332312F48A1B9B0B56C00D
:10594000DB018F939F9320D1BF91AF91A29F800DD8
:10595000911DA39F900DB29F900D1124089599273A
:1059600078E0880F991F961708F0961B881F7A9584
:10597000C9F78095089587FB082E062687FD819537
:1059800067FD6195ECDF0EF4919507FC8195089514
:10599000AA1BBB1B51E107C0AA1FBB1FA617B70755
:1059A00010F0A61BB70B881F991F5A95A9F7809571
:1059B0009095BC01CD01089597FB072E16F4009435
:1059C00006D077FD08D0E4DF07FC05D03EF49095C3
:1059D00081959F4F0895709561957F4F0895EE0FC3
:1059E000FF1F0590F491E02D099415D1B7FF08959C
:1059F000821B930B0895AAE0B0E0E0E0FDE2E4C072
:105A000089879A87FC0160817181828193810097E7
:105A10007040604021F464E279ED8BE597E02DE180
:105A200033EF41E050E094D029833A834B835C8389
:105A30009B01AC01A7EAB1E4A7D06D837E838F837D
:105A40009887ACEEB4EF29813A814B815C81A8D074
:105A50002D813E814F815885260F371F481F591FC2
:105A6000C901DA01B7FF03C00197A109B048E98570
:105A7000FA8580839183A283B3839F772A96E2E09D
:105A8000BFC0B9CF80E091E0B6CF80930001909382
:105A9000010110920201109203010895FC0141508E
:105AA000504030F001900616D1F73197CF0108959C
:105AB000882799270895FB01DC0104C08D9101908E
:105AC000801921F441505040C8F7881B990B089564
:105AD000F999FECF92BD81BDF89A992780B50895B6
